{
  "contractName": "SupplyChain",
  "abi": [
    {
      "inputs": [],
      "payable": true,
      "stateMutability": "payable",
      "type": "constructor"
    },
    {
      "anonymous": false,
      "inputs": [
        {
          "indexed": true,
          "internalType": "address",
          "name": "account",
          "type": "address"
        }
      ],
      "name": "Added",
      "type": "event"
    },
    {
      "anonymous": false,
      "inputs": [
        {
          "indexed": true,
          "internalType": "address",
          "name": "account",
          "type": "address"
        }
      ],
      "name": "AddedDistributor",
      "type": "event"
    },
    {
      "anonymous": false,
      "inputs": [
        {
          "indexed": true,
          "internalType": "address",
          "name": "account",
          "type": "address"
        }
      ],
      "name": "FarmerAdded",
      "type": "event"
    },
    {
      "anonymous": false,
      "inputs": [
        {
          "indexed": true,
          "internalType": "address",
          "name": "account",
          "type": "address"
        }
      ],
      "name": "FarmerRemoved",
      "type": "event"
    },
    {
      "anonymous": false,
      "inputs": [
        {
          "indexed": false,
          "internalType": "uint256",
          "name": "upc",
          "type": "uint256"
        }
      ],
      "name": "ForSale",
      "type": "event"
    },
    {
      "anonymous": false,
      "inputs": [
        {
          "indexed": false,
          "internalType": "uint256",
          "name": "upc",
          "type": "uint256"
        }
      ],
      "name": "Harvested",
      "type": "event"
    },
    {
      "anonymous": false,
      "inputs": [
        {
          "indexed": false,
          "internalType": "uint256",
          "name": "upc",
          "type": "uint256"
        }
      ],
      "name": "Packed",
      "type": "event"
    },
    {
      "anonymous": false,
      "inputs": [
        {
          "indexed": false,
          "internalType": "uint256",
          "name": "upc",
          "type": "uint256"
        }
      ],
      "name": "Processed",
      "type": "event"
    },
    {
      "anonymous": false,
      "inputs": [
        {
          "indexed": false,
          "internalType": "uint256",
          "name": "upc",
          "type": "uint256"
        }
      ],
      "name": "Purchased",
      "type": "event"
    },
    {
      "anonymous": false,
      "inputs": [
        {
          "indexed": false,
          "internalType": "uint256",
          "name": "upc",
          "type": "uint256"
        }
      ],
      "name": "Received",
      "type": "event"
    },
    {
      "anonymous": false,
      "inputs": [
        {
          "indexed": true,
          "internalType": "address",
          "name": "account",
          "type": "address"
        }
      ],
      "name": "Removed",
      "type": "event"
    },
    {
      "anonymous": false,
      "inputs": [
        {
          "indexed": true,
          "internalType": "address",
          "name": "account",
          "type": "address"
        }
      ],
      "name": "RemovedDistributor",
      "type": "event"
    },
    {
      "anonymous": false,
      "inputs": [
        {
          "indexed": false,
          "internalType": "uint256",
          "name": "upc",
          "type": "uint256"
        }
      ],
      "name": "Shipped",
      "type": "event"
    },
    {
      "anonymous": false,
      "inputs": [
        {
          "indexed": false,
          "internalType": "uint256",
          "name": "upc",
          "type": "uint256"
        }
      ],
      "name": "Sold",
      "type": "event"
    },
    {
      "anonymous": false,
      "inputs": [
        {
          "indexed": true,
          "internalType": "address",
          "name": "oldOwner",
          "type": "address"
        },
        {
          "indexed": true,
          "internalType": "address",
          "name": "newOwner",
          "type": "address"
        }
      ],
      "name": "TransferOwnership",
      "type": "event"
    },
    {
      "constant": false,
      "inputs": [
        {
          "internalType": "address",
          "name": "account",
          "type": "address"
        }
      ],
      "name": "addConsumer",
      "outputs": [],
      "payable": false,
      "stateMutability": "nonpayable",
      "type": "function"
    },
    {
      "constant": false,
      "inputs": [
        {
          "internalType": "address",
          "name": "account",
          "type": "address"
        }
      ],
      "name": "addDistributor",
      "outputs": [],
      "payable": false,
      "stateMutability": "nonpayable",
      "type": "function"
    },
    {
      "constant": false,
      "inputs": [
        {
          "internalType": "address",
          "name": "account",
          "type": "address"
        }
      ],
      "name": "addFarmer",
      "outputs": [],
      "payable": false,
      "stateMutability": "nonpayable",
      "type": "function"
    },
    {
      "constant": false,
      "inputs": [
        {
          "internalType": "address",
          "name": "account",
          "type": "address"
        }
      ],
      "name": "addRetailer",
      "outputs": [],
      "payable": false,
      "stateMutability": "nonpayable",
      "type": "function"
    },
    {
      "constant": true,
      "inputs": [
        {
          "internalType": "address",
          "name": "account",
          "type": "address"
        }
      ],
      "name": "isConsumer",
      "outputs": [
        {
          "internalType": "bool",
          "name": "",
          "type": "bool"
        }
      ],
      "payable": false,
      "stateMutability": "view",
      "type": "function"
    },
    {
      "constant": true,
      "inputs": [
        {
          "internalType": "address",
          "name": "account",
          "type": "address"
        }
      ],
      "name": "isDistributor",
      "outputs": [
        {
          "internalType": "bool",
          "name": "",
          "type": "bool"
        }
      ],
      "payable": false,
      "stateMutability": "view",
      "type": "function"
    },
    {
      "constant": true,
      "inputs": [
        {
          "internalType": "address",
          "name": "account",
          "type": "address"
        }
      ],
      "name": "isFarmer",
      "outputs": [
        {
          "internalType": "bool",
          "name": "",
          "type": "bool"
        }
      ],
      "payable": false,
      "stateMutability": "view",
      "type": "function"
    },
    {
      "constant": true,
      "inputs": [],
      "name": "isOwner",
      "outputs": [
        {
          "internalType": "bool",
          "name": "",
          "type": "bool"
        }
      ],
      "payable": false,
      "stateMutability": "view",
      "type": "function"
    },
    {
      "constant": true,
      "inputs": [
        {
          "internalType": "address",
          "name": "account",
          "type": "address"
        }
      ],
      "name": "isRetailer",
      "outputs": [
        {
          "internalType": "bool",
          "name": "",
          "type": "bool"
        }
      ],
      "payable": false,
      "stateMutability": "view",
      "type": "function"
    },
    {
      "constant": true,
      "inputs": [],
      "name": "owner",
      "outputs": [
        {
          "internalType": "address",
          "name": "",
          "type": "address"
        }
      ],
      "payable": false,
      "stateMutability": "view",
      "type": "function"
    },
    {
      "constant": false,
      "inputs": [],
      "name": "renounceConsumer",
      "outputs": [],
      "payable": false,
      "stateMutability": "nonpayable",
      "type": "function"
    },
    {
      "constant": false,
      "inputs": [],
      "name": "renounceDistributor",
      "outputs": [],
      "payable": false,
      "stateMutability": "nonpayable",
      "type": "function"
    },
    {
      "constant": false,
      "inputs": [],
      "name": "renounceFarmer",
      "outputs": [],
      "payable": false,
      "stateMutability": "nonpayable",
      "type": "function"
    },
    {
      "constant": false,
      "inputs": [],
      "name": "renounceOwnership",
      "outputs": [],
      "payable": false,
      "stateMutability": "nonpayable",
      "type": "function"
    },
    {
      "constant": false,
      "inputs": [],
      "name": "renounceRetailer",
      "outputs": [],
      "payable": false,
      "stateMutability": "nonpayable",
      "type": "function"
    },
    {
      "constant": false,
      "inputs": [
        {
          "internalType": "address",
          "name": "newOwner",
          "type": "address"
        }
      ],
      "name": "transferOwnership",
      "outputs": [],
      "payable": false,
      "stateMutability": "nonpayable",
      "type": "function"
    },
    {
      "constant": false,
      "inputs": [],
      "name": "kill",
      "outputs": [],
      "payable": false,
      "stateMutability": "nonpayable",
      "type": "function"
    },
    {
      "constant": false,
      "inputs": [
        {
          "internalType": "uint256",
          "name": "_sku",
          "type": "uint256"
        },
        {
          "internalType": "uint256",
          "name": "_upc",
          "type": "uint256"
        },
        {
          "internalType": "address payable",
          "name": "_originFarmerID",
          "type": "address"
        },
        {
          "internalType": "string",
          "name": "_originFarmName",
          "type": "string"
        },
        {
          "internalType": "string",
          "name": "_originFarmInformation",
          "type": "string"
        },
        {
          "internalType": "string",
          "name": "_originFarmLatitude",
          "type": "string"
        },
        {
          "internalType": "string",
          "name": "_originFarmLongitude",
          "type": "string"
        },
        {
          "internalType": "string",
          "name": "_productNotes",
          "type": "string"
        }
      ],
      "name": "harvestItem",
      "outputs": [],
      "payable": false,
      "stateMutability": "nonpayable",
      "type": "function"
    },
    {
      "constant": false,
      "inputs": [
        {
          "internalType": "uint256",
          "name": "_upc",
          "type": "uint256"
        }
      ],
      "name": "processItem",
      "outputs": [],
      "payable": false,
      "stateMutability": "nonpayable",
      "type": "function"
    },
    {
      "constant": false,
      "inputs": [
        {
          "internalType": "uint256",
          "name": "_upc",
          "type": "uint256"
        }
      ],
      "name": "packItem",
      "outputs": [],
      "payable": false,
      "stateMutability": "nonpayable",
      "type": "function"
    },
    {
      "constant": false,
      "inputs": [
        {
          "internalType": "uint256",
          "name": "_upc",
          "type": "uint256"
        },
        {
          "internalType": "uint256",
          "name": "_price",
          "type": "uint256"
        },
        {
          "internalType": "address payable",
          "name": "_distributorID",
          "type": "address"
        }
      ],
      "name": "sellItem",
      "outputs": [],
      "payable": false,
      "stateMutability": "nonpayable",
      "type": "function"
    },
    {
      "constant": false,
      "inputs": [
        {
          "internalType": "uint256",
          "name": "_upc",
          "type": "uint256"
        }
      ],
      "name": "buyItem",
      "outputs": [],
      "payable": true,
      "stateMutability": "payable",
      "type": "function"
    },
    {
      "constant": false,
      "inputs": [
        {
          "internalType": "uint256",
          "name": "_upc",
          "type": "uint256"
        },
        {
          "internalType": "address payable",
          "name": "retailerID",
          "type": "address"
        }
      ],
      "name": "shipItem",
      "outputs": [],
      "payable": false,
      "stateMutability": "nonpayable",
      "type": "function"
    },
    {
      "constant": false,
      "inputs": [
        {
          "internalType": "uint256",
          "name": "_upc",
          "type": "uint256"
        },
        {
          "internalType": "address payable",
          "name": "consumerID",
          "type": "address"
        }
      ],
      "name": "receiveItem",
      "outputs": [],
      "payable": false,
      "stateMutability": "nonpayable",
      "type": "function"
    },
    {
      "constant": false,
      "inputs": [
        {
          "internalType": "uint256",
          "name": "_upc",
          "type": "uint256"
        }
      ],
      "name": "purchaseItem",
      "outputs": [],
      "payable": false,
      "stateMutability": "nonpayable",
      "type": "function"
    },
    {
      "constant": true,
      "inputs": [
        {
          "internalType": "uint256",
          "name": "_upc",
          "type": "uint256"
        }
      ],
      "name": "fetchItemBufferOne",
      "outputs": [
        {
          "internalType": "uint256",
          "name": "itemSKU",
          "type": "uint256"
        },
        {
          "internalType": "uint256",
          "name": "itemUPC",
          "type": "uint256"
        },
        {
          "internalType": "address payable",
          "name": "ownerID",
          "type": "address"
        },
        {
          "internalType": "address payable",
          "name": "originFarmerID",
          "type": "address"
        },
        {
          "internalType": "string",
          "name": "originFarmName",
          "type": "string"
        },
        {
          "internalType": "string",
          "name": "originFarmInformation",
          "type": "string"
        },
        {
          "internalType": "string",
          "name": "originFarmLatitude",
          "type": "string"
        },
        {
          "internalType": "string",
          "name": "originFarmLongitude",
          "type": "string"
        }
      ],
      "payable": false,
      "stateMutability": "view",
      "type": "function"
    },
    {
      "constant": true,
      "inputs": [
        {
          "internalType": "uint256",
          "name": "_upc",
          "type": "uint256"
        }
      ],
      "name": "fetchItemBufferTwo",
      "outputs": [
        {
          "internalType": "uint256",
          "name": "itemSKU",
          "type": "uint256"
        },
        {
          "internalType": "uint256",
          "name": "itemUPC",
          "type": "uint256"
        },
        {
          "internalType": "uint256",
          "name": "productID",
          "type": "uint256"
        },
        {
          "internalType": "string",
          "name": "productNotes",
          "type": "string"
        },
        {
          "internalType": "uint256",
          "name": "productPrice",
          "type": "uint256"
        },
        {
          "internalType": "enum SupplyChain.State",
          "name": "itemState",
          "type": "uint8"
        },
        {
          "internalType": "address",
          "name": "distributorID",
          "type": "address"
        },
        {
          "internalType": "address",
          "name": "retailerID",
          "type": "address"
        },
        {
          "internalType": "address",
          "name": "consumerID",
          "type": "address"
        }
      ],
      "payable": false,
      "stateMutability": "view",
      "type": "function"
    }
  ],
  "bytecode": "0x6080604052336000806101000a81548173ffffffffffffffffffffffffffffffffffffffff021916908373ffffffffffffffffffffffffffffffffffffffff1602179055506000809054906101000a900473ffffffffffffffffffffffffffffffffffffffff1673ffffffffffffffffffffffffffffffffffffffff16600073ffffffffffffffffffffffffffffffffffffffff167f5c486528ec3e3f0ea91181cff8116f02bfa350e03b8b6f12e00765adbb5af85c60405160405180910390a3620000d1336200012b60201b60201c565b620000e2336200018c60201b60201c565b620000f333620001ed60201b60201c565b62000104336200024e60201b60201c565b6200011533620002af60201b60201c565b60016006819055506001600581905550620004c6565b62000146816001620002dd60201b620030db1790919060201c565b8073ffffffffffffffffffffffffffffffffffffffff167fdcfefddfe354ab15def7a2a6a8758e2ad4100c920318c627db94e29d833e156760405160405180910390a250565b620001a7816002620002dd60201b620030db1790919060201c565b8073ffffffffffffffffffffffffffffffffffffffff167f4527d623f1775b54de7d59f4985ea4edd1a58c0d4c01bbe98d08962d3709cbc360405160405180910390a250565b62000208816003620002dd60201b620030db1790919060201c565b8073ffffffffffffffffffffffffffffffffffffffff167f2e0ded4123377a3c2bc9a26f1717655a129e2f20752924d42e730ec89c83dbd060405160405180910390a250565b62000269816004620002dd60201b620030db1790919060201c565b8073ffffffffffffffffffffffffffffffffffffffff167fdcfefddfe354ab15def7a2a6a8758e2ad4100c920318c627db94e29d833e156760405160405180910390a250565b620002bf6200037660201b60201c565b620002c957600080fd5b620002da81620003cd60201b60201c565b50565b600073ffffffffffffffffffffffffffffffffffffffff168173ffffffffffffffffffffffffffffffffffffffff1614156200031857600080fd5b60018260000160008373ffffffffffffffffffffffffffffffffffffffff1673ffffffffffffffffffffffffffffffffffffffff16815260200190815260200160002060006101000a81548160ff0219169083151502179055505050565b60008060009054906101000a900473ffffffffffffffffffffffffffffffffffffffff1673ffffffffffffffffffffffffffffffffffffffff163373ffffffffffffffffffffffffffffffffffffffff1614905090565b600073ffffffffffffffffffffffffffffffffffffffff168173ffffffffffffffffffffffffffffffffffffffff1614156200040857600080fd5b8073ffffffffffffffffffffffffffffffffffffffff166000809054906101000a900473ffffffffffffffffffffffffffffffffffffffff1673ffffffffffffffffffffffffffffffffffffffff167f5c486528ec3e3f0ea91181cff8116f02bfa350e03b8b6f12e00765adbb5af85c60405160405180910390a3806000806101000a81548173ffffffffffffffffffffffffffffffffffffffff021916908373ffffffffffffffffffffffffffffffffffffffff16021790555050565b61357380620004d66000396000f3fe60806040526004361061019c5760003560e01c806380fc0ce4116100ec578063b94290691161008a578063db0e6a2f11610064578063db0e6a2f14610e56578063e7fb74c714610e6d578063f2fde38b14610e9b578063f30fc48014610eec5761019c565b8063b942906914610d57578063bb4f288d14610dc0578063d38ea5bf14610e1b5761019c565b80638ec4f505116100c65780638ec4f50514610c135780638f0c86fa14610c645780638f32d59b14610ccd578063a80b20f214610cfc5761019c565b806380fc0ce414610b3c578063834ff73914610b535780638da5cb5b14610bbc5761019c565b806361e6982d11610159578063715018a611610133578063715018a6146108175780637250e2241461082e57806377c459131461087f57806380c3f96d14610aeb5761019c565b806361e6982d1461066b578063644241db1461068257806366225ff9146106995761019c565b8063112940f9146101a157806315562129146101f257806326b3dceb1461025757806341c0e1b5146105b057806349dae766146105c75780635da09b8814610602575b600080fd5b3480156101ad57600080fd5b506101f0600480360360208110156101c457600080fd5b81019080803573ffffffffffffffffffffffffffffffffffffffff169060200190929190505050610f27565b005b3480156101fe57600080fd5b506102556004803603606081101561021557600080fd5b810190808035906020019092919080359060200190929190803573ffffffffffffffffffffffffffffffffffffffff169060200190929190505050610f33565b005b34801561026357600080fd5b506105ae600480360361010081101561027b57600080fd5b810190808035906020019092919080359060200190929190803573ffffffffffffffffffffffffffffffffffffffff169060200190929190803590602001906401000000008111156102cc57600080fd5b8201836020820111156102de57600080fd5b8035906020019184600183028401116401000000008311171561030057600080fd5b91908080601f016020809104026020016040519081016040528093929190818152602001838380828437600081840152601f19601f8201169050808301925050505050505091929192908035906020019064010000000081111561036357600080fd5b82018360208201111561037557600080fd5b8035906020019184600183028401116401000000008311171561039757600080fd5b91908080601f016020809104026020016040519081016040528093929190818152602001838380828437600081840152601f19601f820116905080830192505050505050509192919290803590602001906401000000008111156103fa57600080fd5b82018360208201111561040c57600080fd5b8035906020019184600183028401116401000000008311171561042e57600080fd5b91908080601f016020809104026020016040519081016040528093929190818152602001838380828437600081840152601f19601f8201169050808301925050505050505091929192908035906020019064010000000081111561049157600080fd5b8201836020820111156104a357600080fd5b803590602001918460018302840111640100000000831117156104c557600080fd5b91908080601f016020809104026020016040519081016040528093929190818152602001838380828437600081840152601f19601f8201169050808301925050505050505091929192908035906020019064010000000081111561052857600080fd5b82018360208201111561053a57600080fd5b8035906020019184600183028401116401000000008311171561055c57600080fd5b91908080601f016020809104026020016040519081016040528093929190818152602001838380828437600081840152601f19601f820116905080830192505050505050509192919290505050611196565b005b3480156105bc57600080fd5b506105c56115b4565b005b3480156105d357600080fd5b50610600600480360360208110156105ea57600080fd5b81019080803590602001909291905050506115be565b005b34801561060e57600080fd5b506106516004803603602081101561062557600080fd5b81019080803573ffffffffffffffffffffffffffffffffffffffff1690602001909291905050506117de565b604051808215151515815260200191505060405180910390f35b34801561067757600080fd5b506106806117fb565b005b34801561068e57600080fd5b50610697611806565b005b3480156106a557600080fd5b506106d2600480360360208110156106bc57600080fd5b8101908080359060200190929190505050611811565b604051808a8152602001898152602001888152602001806020018781526020018660088111156106fe57fe5b60ff1681526020018573ffffffffffffffffffffffffffffffffffffffff1673ffffffffffffffffffffffffffffffffffffffff1681526020018473ffffffffffffffffffffffffffffffffffffffff1673ffffffffffffffffffffffffffffffffffffffff1681526020018373ffffffffffffffffffffffffffffffffffffffff1673ffffffffffffffffffffffffffffffffffffffff168152602001828103825288818151815260200191508051906020019080838360005b838110156107d45780820151818401526020810190506107b9565b50505050905090810190601f1680156108015780820380516001836020036101000a031916815260200191505b509a505050505050505050505060405180910390f35b34801561082357600080fd5b5061082c611a2e565b005b34801561083a57600080fd5b5061087d6004803603602081101561085157600080fd5b81019080803573ffffffffffffffffffffffffffffffffffffffff169060200190929190505050611afe565b005b34801561088b57600080fd5b506108b8600480360360208110156108a257600080fd5b8101908080359060200190929190505050611b0a565b604051808981526020018881526020018773ffffffffffffffffffffffffffffffffffffffff1673ffffffffffffffffffffffffffffffffffffffff1681526020018673ffffffffffffffffffffffffffffffffffffffff1673ffffffffffffffffffffffffffffffffffffffff16815260200180602001806020018060200180602001858103855289818151815260200191508051906020019080838360005b83811015610974578082015181840152602081019050610959565b50505050905090810190601f1680156109a15780820380516001836020036101000a031916815260200191505b50858103845288818151815260200191508051906020019080838360005b838110156109da5780820151818401526020810190506109bf565b50505050905090810190601f168015610a075780820380516001836020036101000a031916815260200191505b50858103835287818151815260200191508051906020019080838360005b83811015610a40578082015181840152602081019050610a25565b50505050905090810190601f168015610a6d5780820380516001836020036101000a031916815260200191505b50858103825286818151815260200191508051906020019080838360005b83811015610aa6578082015181840152602081019050610a8b565b50505050905090810190601f168015610ad35780820380516001836020036101000a031916815260200191505b509c5050505050505050505050505060405180910390f35b348015610af757600080fd5b50610b3a60048036036020811015610b0e57600080fd5b81019080803573ffffffffffffffffffffffffffffffffffffffff169060200190929190505050611ea1565b005b348015610b4857600080fd5b50610b51611ead565b005b348015610b5f57600080fd5b50610ba260048036036020811015610b7657600080fd5b81019080803573ffffffffffffffffffffffffffffffffffffffff169060200190929190505050611eb8565b604051808215151515815260200191505060405180910390f35b348015610bc857600080fd5b50610bd1611ed5565b604051808273ffffffffffffffffffffffffffffffffffffffff1673ffffffffffffffffffffffffffffffffffffffff16815260200191505060405180910390f35b348015610c1f57600080fd5b50610c6260048036036020811015610c3657600080fd5b81019080803573ffffffffffffffffffffffffffffffffffffffff169060200190929190505050611efe565b005b348015610c7057600080fd5b50610cb360048036036020811015610c8757600080fd5b81019080803573ffffffffffffffffffffffffffffffffffffffff169060200190929190505050611f0a565b604051808215151515815260200191505060405180910390f35b348015610cd957600080fd5b50610ce2611f27565b604051808215151515815260200191505060405180910390f35b348015610d0857600080fd5b50610d5560048036036040811015610d1f57600080fd5b8101908080359060200190929190803573ffffffffffffffffffffffffffffffffffffffff169060200190929190505050611f7e565b005b348015610d6357600080fd5b50610da660048036036020811015610d7a57600080fd5b81019080803573ffffffffffffffffffffffffffffffffffffffff1690602001909291905050506121b2565b604051808215151515815260200191505060405180910390f35b348015610dcc57600080fd5b50610e1960048036036040811015610de357600080fd5b8101908080359060200190929190803573ffffffffffffffffffffffffffffffffffffffff1690602001909291905050506121cf565b005b348015610e2757600080fd5b50610e5460048036036020811015610e3e57600080fd5b8101908080359060200190929190505050612416565b005b348015610e6257600080fd5b50610e6b612624565b005b610e9960048036036020811015610e8357600080fd5b810190808035906020019092919050505061262f565b005b348015610ea757600080fd5b50610eea60048036036020811015610ebe57600080fd5b81019080803573ffffffffffffffffffffffffffffffffffffffff169060200190929190505050612a44565b005b348015610ef857600080fd5b50610f2560048036036020811015610f0f57600080fd5b8101908080359060200190929190505050612a61565b005b610f3081612c81565b50565b610f3c336121b2565b610f91576040517f08c379a00000000000000000000000000000000000000000000000000000000081526004018080602001828103825260258152602001806134f96025913960400191505060405180910390fd5b8260036008811115610f9f57fe5b60076000838152602001908152602001600020600b0160009054906101000a900460ff166008811115610fce57fe5b14611041576040517f08c379a000000000000000000000000000000000000000000000000000000000815260040180806020018281038252601f8152602001807f4974656d206973206e6f7420696e20746865205061636b65642073746174650081525060200191505060405180910390fd5b6007600085815260200190815260200160002060030160009054906101000a900473ffffffffffffffffffffffffffffffffffffffff168073ffffffffffffffffffffffffffffffffffffffff163373ffffffffffffffffffffffffffffffffffffffff16146110fc576040517f08c379a00000000000000000000000000000000000000000000000000000000081526004018080602001828103825260278152602001806134a86027913960400191505060405180910390fd5b600460076000878152602001908152602001600020600b0160006101000a81548160ff0219169083600881111561112f57fe5b02179055508360076000878152602001908152602001600020600a01819055507fa96ae0fc3224ebd79eebfe54bd130cc9cb94416cddd1f2386115e00b72532468856040518082815260200191505060405180910390a161118f83611afe565b5050505050565b61119f336121b2565b6111f4576040517f08c379a00000000000000000000000000000000000000000000000000000000081526004018080602001828103825260258152602001806134f96025913960400191505060405180910390fd5b876006819055508660058190555061120a61321e565b604051806101e001604052808a81526020018981526020013373ffffffffffffffffffffffffffffffffffffffff1681526020018873ffffffffffffffffffffffffffffffffffffffff168152602001878152602001868152602001858152602001848152602001600654600554018152602001838152602001600081526020016001600881111561129857fe5b8152602001600073ffffffffffffffffffffffffffffffffffffffff168152602001600073ffffffffffffffffffffffffffffffffffffffff168152602001600073ffffffffffffffffffffffffffffffffffffffff16815250905080600760008a8152602001908152602001600020600082015181600001556020820151816001015560408201518160020160006101000a81548173ffffffffffffffffffffffffffffffffffffffff021916908373ffffffffffffffffffffffffffffffffffffffff16021790555060608201518160030160006101000a81548173ffffffffffffffffffffffffffffffffffffffff021916908373ffffffffffffffffffffffffffffffffffffffff16021790555060808201518160040190805190602001906113c692919061330d565b5060a08201518160050190805190602001906113e392919061330d565b5060c082015181600601908051906020019061140092919061330d565b5060e082015181600701908051906020019061141d92919061330d565b50610100820151816008015561012082015181600901908051906020019061144692919061330d565b5061014082015181600a015561016082015181600b0160006101000a81548160ff0219169083600881111561147757fe5b021790555061018082015181600b0160016101000a81548173ffffffffffffffffffffffffffffffffffffffff021916908373ffffffffffffffffffffffffffffffffffffffff1602179055506101a082015181600c0160006101000a81548173ffffffffffffffffffffffffffffffffffffffff021916908373ffffffffffffffffffffffffffffffffffffffff1602179055506101c082015181600d0160006101000a81548173ffffffffffffffffffffffffffffffffffffffff021916908373ffffffffffffffffffffffffffffffffffffffff16021790555090505061156087611ea1565b6006600081548092919060010191905055507f8e55ccfc9778ff8eba1646d765cf1982537ce0f9257054a17b48aad745250183886040518082815260200191505060405180910390a1505050505050505050565b6115bc611a2e565b565b6115c7336121b2565b61161c576040517f08c379a00000000000000000000000000000000000000000000000000000000081526004018080602001828103825260258152602001806134f96025913960400191505060405180910390fd5b806001600881111561162a57fe5b60076000838152602001908152602001600020600b0160009054906101000a900460ff16600881111561165957fe5b146116af576040517f08c379a00000000000000000000000000000000000000000000000000000000081526004018080602001828103825260228152602001806133b36022913960400191505060405180910390fd5b6007600083815260200190815260200160002060030160009054906101000a900473ffffffffffffffffffffffffffffffffffffffff168073ffffffffffffffffffffffffffffffffffffffff163373ffffffffffffffffffffffffffffffffffffffff161461176a576040517f08c379a00000000000000000000000000000000000000000000000000000000081526004018080602001828103825260278152602001806134a86027913960400191505060405180910390fd5b600260076000858152602001908152602001600020600b0160006101000a81548160ff0219169083600881111561179d57fe5b02179055507f5afe3b1bf87069693c075da5c22a98d63d1aef98a30dbbe538d0781a98b77ee5836040518082815260200191505060405180910390a1505050565b60006117f4826004612cdb90919063ffffffff16565b9050919050565b61180433612d6d565b565b61180f33612dc7565b565b600080600060606000806000806000600760008b8152602001908152602001600020600001549850600760008b8152602001908152602001600020600101549750600760008b8152602001908152602001600020600801549650600760008b81526020019081526020016000206009018054600181600116156101000203166002900480601f0160208091040260200160405190810160405280929190818152602001828054600181600116156101000203166002900480156119155780601f106118ea57610100808354040283529160200191611915565b820191906000526020600020905b8154815290600101906020018083116118f857829003601f168201915b50505050509550600760008b8152602001908152602001600020600a01549450600760008b8152602001908152602001600020600b0160009054906101000a900460ff169350600760008b8152602001908152602001600020600b0160019054906101000a900473ffffffffffffffffffffffffffffffffffffffff169250600760008b8152602001908152602001600020600c0160009054906101000a900473ffffffffffffffffffffffffffffffffffffffff169150600760008b8152602001908152602001600020600d0160009054906101000a900473ffffffffffffffffffffffffffffffffffffffff1690508888888888888888889850985098509850985098509850985098509193959799909294969850565b611a36611f27565b611a3f57600080fd5b600073ffffffffffffffffffffffffffffffffffffffff166000809054906101000a900473ffffffffffffffffffffffffffffffffffffffff1673ffffffffffffffffffffffffffffffffffffffff167f5c486528ec3e3f0ea91181cff8116f02bfa350e03b8b6f12e00765adbb5af85c60405160405180910390a360008060006101000a81548173ffffffffffffffffffffffffffffffffffffffff021916908373ffffffffffffffffffffffffffffffffffffffff160217905550565b611b0781612e21565b50565b600080600080606080606080600760008a8152602001908152602001600020600001549750600760008a8152602001908152602001600020600101549650600760008a815260200190815260200160002060020160009054906101000a900473ffffffffffffffffffffffffffffffffffffffff169550600760008a815260200190815260200160002060030160009054906101000a900473ffffffffffffffffffffffffffffffffffffffff169450600760008a81526020019081526020016000206004018054600181600116156101000203166002900480601f016020809104026020016040519081016040528092919081815260200182805460018160011615610100020316600290048015611c645780601f10611c3957610100808354040283529160200191611c64565b820191906000526020600020905b815481529060010190602001808311611c4757829003601f168201915b50505050509350600760008a81526020019081526020016000206005018054600181600116156101000203166002900480601f016020809104026020016040519081016040528092919081815260200182805460018160011615610100020316600290048015611d155780601f10611cea57610100808354040283529160200191611d15565b820191906000526020600020905b815481529060010190602001808311611cf857829003601f168201915b50505050509250600760008a81526020019081526020016000206006018054600181600116156101000203166002900480601f016020809104026020016040519081016040528092919081815260200182805460018160011615610100020316600290048015611dc65780601f10611d9b57610100808354040283529160200191611dc6565b820191906000526020600020905b815481529060010190602001808311611da957829003601f168201915b50505050509150600760008a81526020019081526020016000206007018054600181600116156101000203166002900480601f016020809104026020016040519081016040528092919081815260200182805460018160011615610100020316600290048015611e775780601f10611e4c57610100808354040283529160200191611e77565b820191906000526020600020905b815481529060010190602001808311611e5a57829003601f168201915b50505050509050878787878787878797509750975097509750975097509750919395975091939597565b611eaa81612e7b565b50565b611eb633612ed5565b565b6000611ece826001612cdb90919063ffffffff16565b9050919050565b60008060009054906101000a900473ffffffffffffffffffffffffffffffffffffffff16905090565b611f0781612f2f565b50565b6000611f20826002612cdb90919063ffffffff16565b9050919050565b60008060009054906101000a900473ffffffffffffffffffffffffffffffffffffffff1673ffffffffffffffffffffffffffffffffffffffff163373ffffffffffffffffffffffffffffffffffffffff1614905090565b611f87336117de565b611fdc576040517f08c379a00000000000000000000000000000000000000000000000000000000081526004018080602001828103825260278152602001806133d56027913960400191505060405180910390fd5b8160066008811115611fea57fe5b60076000838152602001908152602001600020600b0160009054906101000a900460ff16600881111561201957fe5b1461208c576040517f08c379a00000000000000000000000000000000000000000000000000000000081526004018080602001828103825260208152602001807f4974656d206973206e6f7420696e20746865205368697070656420737461746581525060200191505060405180910390fd5b336007600085815260200190815260200160002060020160006101000a81548173ffffffffffffffffffffffffffffffffffffffff021916908373ffffffffffffffffffffffffffffffffffffffff1602179055503360076000858152602001908152602001600020600c0160006101000a81548173ffffffffffffffffffffffffffffffffffffffff021916908373ffffffffffffffffffffffffffffffffffffffff1602179055506007806000858152602001908152602001600020600b0160006101000a81548160ff0219169083600881111561216857fe5b021790555061217682610f27565b7fa8142743f8f70a4c26f3691cf4ed59718381fb2f18070ec52be1f1022d855557836040518082815260200191505060405180910390a1505050565b60006121c8826003612cdb90919063ffffffff16565b9050919050565b6121d833611f0a565b61222d576040517f08c379a000000000000000000000000000000000000000000000000000000000815260040180806020018281038252602a8152602001806134cf602a913960400191505060405180910390fd5b816005600881111561223b57fe5b60076000838152602001908152602001600020600b0160009054906101000a900460ff16600881111561226a57fe5b146122dd576040517f08c379a000000000000000000000000000000000000000000000000000000000815260040180806020018281038252601d8152602001807f4974656d206973206e6f7420696e2074686520536f6c6420737461746500000081525060200191505060405180910390fd5b60076000848152602001908152602001600020600b0160019054906101000a900473ffffffffffffffffffffffffffffffffffffffff168073ffffffffffffffffffffffffffffffffffffffff163373ffffffffffffffffffffffffffffffffffffffff1614612398576040517f08c379a00000000000000000000000000000000000000000000000000000000081526004018080602001828103825260278152602001806134a86027913960400191505060405180910390fd5b600660076000868152602001908152602001600020600b0160006101000a81548160ff021916908360088111156123cb57fe5b02179055506123d983611efe565b7ff00b9a5725b80c54016f42114f6ed7792d22eecb116011c4afac29c57bef6c95846040518082815260200191505060405180910390a150505050565b61241f33611eb8565b612474576040517f08c379a00000000000000000000000000000000000000000000000000000000081526004018080602001828103825260278152602001806134816027913960400191505060405180910390fd5b806007600881111561248257fe5b60076000838152602001908152602001600020600b0160009054906101000a900460ff1660088111156124b157fe5b14612507576040517f08c379a000000000000000000000000000000000000000000000000000000000815260040180806020018281038252602181526020018061351e6021913960400191505060405180910390fd5b336007600084815260200190815260200160002060020160006101000a81548173ffffffffffffffffffffffffffffffffffffffff021916908373ffffffffffffffffffffffffffffffffffffffff1602179055503360076000848152602001908152602001600020600d0160006101000a81548173ffffffffffffffffffffffffffffffffffffffff021916908373ffffffffffffffffffffffffffffffffffffffff160217905550600860076000848152602001908152602001600020600b0160006101000a81548160ff021916908360088111156125e457fe5b02179055507f653d56639fee6b566a5c804764e9689de38645f0b733df89a36a1b7b42173dd8826040518082815260200191505060405180910390a15050565b61262d33612f89565b565b61263833611f0a565b61268d576040517f08c379a000000000000000000000000000000000000000000000000000000000815260040180806020018281038252602a8152602001806134cf602a913960400191505060405180910390fd5b806004600881111561269b57fe5b60076000838152602001908152602001600020600b0160009054906101000a900460ff1660088111156126ca57fe5b1461273d576040517f08c379a00000000000000000000000000000000000000000000000000000000081526004018080602001828103825260208152602001807f4974656d206973206e6f7420696e2074686520466f7253616c6520737461746581525060200191505060405180910390fd5b3480341015612797576040517f08c379a00000000000000000000000000000000000000000000000000000000081526004018080602001828103825260318152602001806133fc6031913960400191505060405180910390fd5b823460076000838152602001908152602001600020600a01541115612807576040517f08c379a000000000000000000000000000000000000000000000000000000000815260040180806020018281038252603281526020018061342d6032913960400191505060405180910390fd5b336007600086815260200190815260200160002060020160006101000a81548173ffffffffffffffffffffffffffffffffffffffff021916908373ffffffffffffffffffffffffffffffffffffffff1602179055503360076000868152602001908152602001600020600b0160016101000a81548173ffffffffffffffffffffffffffffffffffffffff021916908373ffffffffffffffffffffffffffffffffffffffff160217905550600560076000868152602001908152602001600020600b0160006101000a81548160ff021916908360088111156128e457fe5b02179055506007600085815260200190815260200160002060020160009054906101000a900473ffffffffffffffffffffffffffffffffffffffff1673ffffffffffffffffffffffffffffffffffffffff166108fc349081150290604051600060405180830381858888f19350505050158015612965573d6000803e3d6000fd5b507f92f64ca637d023f354075a4be751b169c1a8a9ccb6d33cdd0cb3520543995727846040518082815260200191505060405180910390a1600060076000838152602001908152602001600020600a015490506000813403905060076000848152602001908152602001600020600d0160009054906101000a900473ffffffffffffffffffffffffffffffffffffffff1673ffffffffffffffffffffffffffffffffffffffff166108fc829081150290604051600060405180830381858888f19350505050158015612a3b573d6000803e3d6000fd5b50505050505050565b612a4c611f27565b612a5557600080fd5b612a5e81612fe3565b50565b612a6a336121b2565b612abf576040517f08c379a00000000000000000000000000000000000000000000000000000000081526004018080602001828103825260258152602001806134f96025913960400191505060405180910390fd5b8060026008811115612acd57fe5b60076000838152602001908152602001600020600b0160009054906101000a900460ff166008811115612afc57fe5b14612b52576040517f08c379a000000000000000000000000000000000000000000000000000000000815260040180806020018281038252602281526020018061345f6022913960400191505060405180910390fd5b6007600083815260200190815260200160002060030160009054906101000a900473ffffffffffffffffffffffffffffffffffffffff168073ffffffffffffffffffffffffffffffffffffffff163373ffffffffffffffffffffffffffffffffffffffff1614612c0d576040517f08c379a00000000000000000000000000000000000000000000000000000000081526004018080602001828103825260278152602001806134a86027913960400191505060405180910390fd5b600360076000858152602001908152602001600020600b0160006101000a81548160ff02191690836008811115612c4057fe5b02179055507f9b3b66e2380b690bae22c73ef1428fb0c91e72fe14a4b6defa13035214187aff836040518082815260200191505060405180910390a1505050565b612c958160016130db90919063ffffffff16565b8073ffffffffffffffffffffffffffffffffffffffff167fdcfefddfe354ab15def7a2a6a8758e2ad4100c920318c627db94e29d833e156760405160405180910390a250565b60008073ffffffffffffffffffffffffffffffffffffffff168273ffffffffffffffffffffffffffffffffffffffff161415612d1657600080fd5b8260000160008373ffffffffffffffffffffffffffffffffffffffff1673ffffffffffffffffffffffffffffffffffffffff16815260200190815260200160002060009054906101000a900460ff16905092915050565b612d8181600161317390919063ffffffff16565b8073ffffffffffffffffffffffffffffffffffffffff167f066a905b79c0121afe61e3a44e0b14b6bc1ec16d854cdba09efdfc9b6aa9af8160405160405180910390a250565b612ddb81600261317390919063ffffffff16565b8073ffffffffffffffffffffffffffffffffffffffff167fe97cda5a38c7bf07ed49060d506300ef661ff5fa8cf545bac1a280807156405960405160405180910390a250565b612e358160026130db90919063ffffffff16565b8073ffffffffffffffffffffffffffffffffffffffff167f4527d623f1775b54de7d59f4985ea4edd1a58c0d4c01bbe98d08962d3709cbc360405160405180910390a250565b612e8f8160036130db90919063ffffffff16565b8073ffffffffffffffffffffffffffffffffffffffff167f2e0ded4123377a3c2bc9a26f1717655a129e2f20752924d42e730ec89c83dbd060405160405180910390a250565b612ee981600361317390919063ffffffff16565b8073ffffffffffffffffffffffffffffffffffffffff167fa5e0f060af304ab17dd418c7927e3da3ae7868189bf387aee09ab179ccc572f260405160405180910390a250565b612f438160046130db90919063ffffffff16565b8073ffffffffffffffffffffffffffffffffffffffff167fdcfefddfe354ab15def7a2a6a8758e2ad4100c920318c627db94e29d833e156760405160405180910390a250565b612f9d81600461317390919063ffffffff16565b8073ffffffffffffffffffffffffffffffffffffffff167f066a905b79c0121afe61e3a44e0b14b6bc1ec16d854cdba09efdfc9b6aa9af8160405160405180910390a250565b600073ffffffffffffffffffffffffffffffffffffffff168173ffffffffffffffffffffffffffffffffffffffff16141561301d57600080fd5b8073ffffffffffffffffffffffffffffffffffffffff166000809054906101000a900473ffffffffffffffffffffffffffffffffffffffff1673ffffffffffffffffffffffffffffffffffffffff167f5c486528ec3e3f0ea91181cff8116f02bfa350e03b8b6f12e00765adbb5af85c60405160405180910390a3806000806101000a81548173ffffffffffffffffffffffffffffffffffffffff021916908373ffffffffffffffffffffffffffffffffffffffff16021790555050565b600073ffffffffffffffffffffffffffffffffffffffff168173ffffffffffffffffffffffffffffffffffffffff16141561311557600080fd5b60018260000160008373ffffffffffffffffffffffffffffffffffffffff1673ffffffffffffffffffffffffffffffffffffffff16815260200190815260200160002060006101000a81548160ff0219169083151502179055505050565b600073ffffffffffffffffffffffffffffffffffffffff168173ffffffffffffffffffffffffffffffffffffffff1614156131ad57600080fd5b6131b78282612cdb565b6131c057600080fd5b60008260000160008373ffffffffffffffffffffffffffffffffffffffff1673ffffffffffffffffffffffffffffffffffffffff16815260200190815260200160002060006101000a81548160ff0219169083151502179055505050565b604051806101e001604052806000815260200160008152602001600073ffffffffffffffffffffffffffffffffffffffff168152602001600073ffffffffffffffffffffffffffffffffffffffff16815260200160608152602001606081526020016060815260200160608152602001600081526020016060815260200160008152602001600060088111156132b057fe5b8152602001600073ffffffffffffffffffffffffffffffffffffffff168152602001600073ffffffffffffffffffffffffffffffffffffffff168152602001600073ffffffffffffffffffffffffffffffffffffffff1681525090565b828054600181600116156101000203166002900490600052602060002090601f016020900481019282601f1061334e57805160ff191683800117855561337c565b8280016001018555821561337c579182015b8281111561337b578251825591602001919060010190613360565b5b509050613389919061338d565b5090565b6133af91905b808211156133ab576000816000905550600101613393565b5090565b9056fe4974656d206973206e6f7420696e20746865204861727665737465642073746174654f6e6c792072657461696c6572732063616e20706572666f726d207468697320616374696f6e2e496e70757420616d6f756e74206973206e6f742073756666696369656e7420746f20636f76657220746865207072696365496e707574207072696365206d7573742062652067726561746572207468616e207468652070726f647563742070726963654974656d206973206e6f7420696e207468652050726f6365737365642073746174654f6e6c7920636f6e73756d6572732063616e20706572666f726d207468697320616374696f6e2e4f6e6c79207468652063616c6c65722063616e20706572666f726d207468697320616374696f6e4f6e6c79206469737472696275746f72732063616e20706572666f726d207468697320616374696f6e2e4f6e6c79206661726d6572732063616e20706572666f726d207468697320616374696f6e2e4974656d206973206e6f7420696e20746865205265636569766564207374617465a265627a7a72315820ca178ecb34eec868b1a75e1e80e626ce7230214ddffcb3f07614a516e8146d0564736f6c63430005100032",
  "source": "// SPDX-License-Identifier: Personal\npragma solidity 0.5.16;\n\nimport \"../coffeecore/Ownable.sol\";\n\nimport \"../coffeeaccesscontrol/ConsumerRole.sol\";\nimport \"../coffeeaccesscontrol/DistributorRole.sol\";\nimport \"../coffeeaccesscontrol/FarmerRole.sol\";\nimport \"../coffeeaccesscontrol/RetailerRole.sol\";\n\n// Define a contract 'Supplychain'\ncontract SupplyChain is\n    Ownable,\n    ConsumerRole,\n    DistributorRole,\n    FarmerRole,\n    RetailerRole\n{\n    // Define 'owner'\n    // address payable owner;\n\n    // Define a variable called 'upc' for Universal Product Code (UPC)\n    uint256 upc;\n\n    // Define a variable called 'sku' for Stock Keeping Unit (SKU)\n    uint256 sku;\n\n    // Define a public mapping 'items' that maps the UPC to an Item.\n    mapping(uint256 => Item) items;\n\n    // Define a public mapping 'itemsHistory' that maps the UPC to an array of TxHash,\n    // that track its journey through the supply chain -- to be sent from DApp.\n    mapping(uint256 => string[]) itemsHistory;\n\n    // Define enum 'State' with the following values:\n    enum State {\n        Started, // 0\n        Harvested, // 1\n        Processed, // 2\n        Packed, // 3\n        ForSale, // 4\n        Sold, // 5\n        Shipped, // 6\n        Received, // 7\n        Purchased // 8\n    }\n\n    State constant defaultState = State.Harvested;\n\n    // Define a struct 'Item' with the following fields:\n    struct Item {\n        uint256 sku; // Stock Keeping Unit (SKU)\n        uint256 upc; // Universal Product Code (UPC), generated by the Farmer, goes on the package, can be verified by the Consumer\n        address payable ownerID; // Metamask-Ethereum address of the current owner as the product moves through 8 stages\n        address payable originFarmerID; // Metamask-Ethereum address of the Farmer\n        string originFarmName; // Farmer Name\n        string originFarmInformation; // Farmer Information\n        string originFarmLatitude; // Farm Latitude\n        string originFarmLongitude; // Farm Longitude\n        uint256 productID; // Product ID potentially a combination of upc + sku\n        string productNotes; // Product Notes\n        uint256 productPrice; // Product Price\n        State itemState; // Product State as represented in the enum above\n        address payable distributorID; // Metamask-Ethereum address of the Distributor\n        address payable retailerID; // Metamask-Ethereum address of the Retailer\n        address payable consumerID; // Metamask-Ethereum address of the Consumer\n    }\n\n    // Define 9 events with the same 9 state values and accept 'upc' as input argument\n    // event Started(uint256 upc);\n    event Harvested(uint256 upc);\n    event Processed(uint256 upc);\n    event Packed(uint256 upc);\n    event ForSale(uint256 upc);\n    event Sold(uint256 upc);\n    event Shipped(uint256 upc);\n    event Received(uint256 upc);\n    event Purchased(uint256 upc);\n\n    // Define a modifer that checks to see if msg.sender == owner of the contract\n    // modifier onlyOwner() {\n    //     require(msg.sender == owner, \"Only the owner can perform this action.\");\n    //     _;\n    // }\n\n    // Define a modifer that verifies the Caller\n    modifier verifyCaller(address _address) {\n        require(\n            msg.sender == _address,\n            \"Only the caller can perform this action\"\n        );\n        _;\n    }\n\n    // Define a modifier that checks if the paid amount is sufficient to cover the price\n    modifier paidEnough(uint256 _price) {\n        require(\n            msg.value >= _price,\n            \"Input amount is not sufficient to cover the price\"\n        );\n        _;\n    }\n\n    // Define a modifier that checks the price and refunds the remaining balance\n    modifier checkValue(uint256 _upc) {\n        require(\n            items[_upc].productPrice <= msg.value,\n            \"Input price must be greater than the product price\"\n        );\n        _;\n        uint256 _price = items[_upc].productPrice;\n        uint256 amountToReturn = msg.value - _price;\n        items[_upc].consumerID.transfer(amountToReturn);\n    }\n\n    // modifier started(uint256 _upc) {\n    //     require(\n    //         items[_upc].itemState == State.Started,\n    //         \"Item is not in the Started state\"\n    //     );\n    //     _;\n    // }\n\n    // Define a modifier that checks if an item.state of a upc is Harvested\n    modifier harvested(uint256 _upc) {\n        require(\n            items[_upc].itemState == State.Harvested,\n            \"Item is not in the Harvested state\"\n        );\n        _;\n    }\n\n    // Define a modifier that checks if an item.state of a upc is Processed\n    modifier processed(uint256 _upc) {\n        require(\n            items[_upc].itemState == State.Processed,\n            \"Item is not in the Processed state\"\n        );\n        _;\n    }\n\n    // Define a modifier that checks if an item.state of a upc is Packed\n    modifier packed(uint256 _upc) {\n        require(\n            items[_upc].itemState == State.Packed,\n            \"Item is not in the Packed state\"\n        );\n        _;\n    }\n\n    // Define a modifier that checks if an item.state of a upc is ForSale\n    modifier forSale(uint256 _upc) {\n        require(\n            items[_upc].itemState == State.ForSale,\n            \"Item is not in the ForSale state\"\n        );\n        _;\n    }\n\n    // Define a modifier that checks if an item.state of a upc is Sold\n    modifier sold(uint256 _upc) {\n        require(\n            items[_upc].itemState == State.Sold,\n            \"Item is not in the Sold state\"\n        );\n        _;\n    }\n\n    // Define a modifier that checks if an item.state of a upc is Shipped\n    modifier shipped(uint256 _upc) {\n        require(\n            items[_upc].itemState == State.Shipped,\n            \"Item is not in the Shipped state\"\n        );\n        _;\n    }\n\n    // Define a modifier that checks if an item.state of a upc is Received\n    modifier received(uint256 _upc) {\n        require(\n            items[_upc].itemState == State.Received,\n            \"Item is not in the Received state\"\n        );\n        _;\n    }\n\n    // Define a modifier that checks if an item.state of a upc is Purchased\n    modifier purchased(uint256 _upc) {\n        require(\n            items[_upc].itemState == State.Purchased,\n            \"Item is not in the Purchased state\"\n        );\n        _;\n    }\n\n    // In the constructor set 'owner' to the address that instantiated the contract\n    // and set 'sku' to 1\n    // and set 'upc' to 1\n    constructor() public payable {\n        transferOwnership(msg.sender);\n        sku = 1;\n        upc = 1;\n    }\n\n    // Define a function 'kill' if required\n    function kill() public {\n        renounceOwnership();\n    }\n\n    // Define a function 'harvestItem' that allows a farmer to mark an item 'Harvested'\n    function harvestItem(\n        uint256 _sku,\n        uint256 _upc,\n        address payable _originFarmerID,\n        string memory _originFarmName,\n        string memory _originFarmInformation,\n        string memory _originFarmLatitude,\n        string memory _originFarmLongitude,\n        string memory _productNotes\n    ) public onlyFarmer {\n        sku = _sku;\n        upc = _upc;\n\n        // Add the new item as part of Harvest\n        Item memory item = Item(\n            _sku,\n            _upc,\n            msg.sender,\n            _originFarmerID,\n            _originFarmName,\n            _originFarmInformation,\n            _originFarmLatitude,\n            _originFarmLongitude,\n            upc + sku, // product ID\n            _productNotes,\n            0,\n            defaultState,\n            address(0),\n            address(0),\n            address(0)\n        );\n\n        items[_upc] = item;\n\n        addFarmer(_originFarmerID);\n\n        // Increment sku\n        sku++;\n        // Emit the appropriate event\n        emit Harvested(_upc);\n    }\n\n    // Define a function 'processtItem' that allows a farmer to mark an item 'Processed'\n\n    // Call modifier to check if upc has passed previous supply chain stage\n    // Call modifier to verify caller of this function\n    function processItem(uint256 _upc)\n        public\n        onlyFarmer\n        harvested(_upc)\n        verifyCaller(items[_upc].originFarmerID)\n    {\n        // Update the appropriate fields\n        items[_upc].itemState = State.Processed;\n        // Emit the appropriate event\n        emit Processed(_upc);\n    }\n\n    // Define a function 'packItem' that allows a farmer to mark an item 'Packed'\n\n    // Call modifier to check if upc has passed previous supply chain stage\n    // Call modifier to verify caller of this function\n    function packItem(uint256 _upc)\n        public\n        onlyFarmer\n        processed(_upc)\n        verifyCaller(items[_upc].originFarmerID)\n    {\n        // Update the appropriate fields\n        items[_upc].itemState = State.Packed;\n        // Emit the appropriate event\n        emit Packed(_upc);\n    }\n\n    // Define a function 'sellItem' that allows a farmer to mark an item 'ForSale'\n\n    // Call modifier to check if upc has passed previous supply chain stage\n    // Call modifier to verify caller of this function\n    function sellItem(\n        uint256 _upc,\n        uint256 _price,\n        address payable _distributorID\n    ) public onlyFarmer packed(_upc) verifyCaller(items[_upc].originFarmerID) {\n        // Update the appropriate fields\n        items[_upc].itemState = State.ForSale;\n        items[_upc].productPrice = _price;\n        // Emit the appropriate event\n        emit ForSale(_upc);\n        addDistributor(_distributorID);\n    }\n\n    // Define a function 'buyItem' that allows the disributor to mark an item 'Sold'\n    // Use the above defined modifiers to check if the item is available for sale, if the buyer has paid enough,\n    // and any excess ether sent is refunded back to the buyer\n\n    // Call modifier to check if upc has passed previous supply chain stage\n    // Call modifer to check if buyer has paid enough\n    // Call modifer to send any excess ether back to buyer\n    function buyItem(uint256 _upc)\n        public\n        payable\n        onlyDistributor\n        forSale(_upc)\n        paidEnough(msg.value)\n        checkValue(_upc)\n    {\n        // Update the appropriate fields - ownerID, distributorID, itemState\n        items[_upc].ownerID = msg.sender;\n        items[_upc].distributorID = msg.sender;\n        items[_upc].itemState = State.Sold;\n\n        // Transfer money to farmer\n        items[_upc].ownerID.transfer(msg.value);\n\n        // addDistributor(msg.sender);\n\n        // emit the appropriate event\n        emit Sold(_upc);\n    }\n\n    // Define a function 'shipItem' that allows the distributor to mark an item 'Shipped'\n    // Use the above modifers to check if the item is sold\n\n    // Call modifier to check if upc has passed previous supply chain stage\n    // Call modifier to verify caller of this function\n    function shipItem(uint256 _upc, address payable retailerID)\n        public\n        onlyDistributor\n        sold(_upc)\n        verifyCaller(items[_upc].distributorID)\n    {\n        // Update the appropriate fields\n        items[_upc].itemState = State.Shipped;\n\n        addRetailer(retailerID);\n\n        // Emit the appropriate event\n        emit Shipped(_upc);\n    }\n\n    // Define a function 'receiveItem' that allows the retailer to mark an item 'Received'\n    // Use the above modifiers to check if the item is shipped\n\n    // Call modifier to check if upc has passed previous supply chain stage\n    // Access Control List enforced by calling Smart Contract / DApp\n    function receiveItem(uint256 _upc, address payable consumerID)\n        public\n        onlyRetailer\n        shipped(_upc)\n    {\n        // Update the appropriate fields - ownerID, retailerID, itemState\n        items[_upc].ownerID = msg.sender;\n        items[_upc].retailerID = msg.sender;\n        items[_upc].itemState = State.Received;\n\n        addConsumer(consumerID);\n\n        // Emit the appropriate event\n        emit Received(_upc);\n    }\n\n    // Define a function 'purchaseItem' that allows the consumer to mark an item 'Purchased'\n    // Use the above modifiers to check if the item is received\n\n    // Call modifier to check if upc has passed previous supply chain stage\n    // Access Control List enforced by calling Smart Contract / DApp\n    function purchaseItem(uint256 _upc) public onlyConsumer received(_upc) {\n        // Update the appropriate fields - ownerID, consumerID, itemState\n        items[_upc].ownerID = msg.sender;\n        items[_upc].consumerID = msg.sender;\n        items[_upc].itemState = State.Purchased;\n\n        // addConsumer(msg.sender);\n\n        // Emit the appropriate event\n        emit Purchased(_upc);\n    }\n\n    // Define a function 'fetchItemBufferOne' that fetches the data\n    function fetchItemBufferOne(uint256 _upc)\n        public\n        view\n        returns (\n            uint256 itemSKU,\n            uint256 itemUPC,\n            address payable ownerID,\n            address payable originFarmerID,\n            string memory originFarmName,\n            string memory originFarmInformation,\n            string memory originFarmLatitude,\n            string memory originFarmLongitude\n        )\n    {\n        // Assign values to the 8 parameters\n        itemSKU = items[_upc].sku;\n        itemUPC = items[_upc].upc;\n        ownerID = items[_upc].ownerID;\n        originFarmerID = items[_upc].originFarmerID;\n        originFarmName = items[_upc].originFarmName;\n        originFarmInformation = items[_upc].originFarmInformation;\n        originFarmLatitude = items[_upc].originFarmLatitude;\n        originFarmLongitude = items[_upc].originFarmLongitude;\n\n        return (\n            itemSKU,\n            itemUPC,\n            ownerID,\n            originFarmerID,\n            originFarmName,\n            originFarmInformation,\n            originFarmLatitude,\n            originFarmLongitude\n        );\n    }\n\n    // Define a function 'fetchItemBufferTwo' that fetches the data\n    function fetchItemBufferTwo(uint256 _upc)\n        public\n        view\n        returns (\n            uint256 itemSKU,\n            uint256 itemUPC,\n            uint256 productID,\n            string memory productNotes,\n            uint256 productPrice,\n            State itemState,\n            address distributorID,\n            address retailerID,\n            address consumerID\n        )\n    {\n        // Assign values to the 9 parameters\n        itemSKU = items[_upc].sku;\n        itemUPC = items[_upc].upc;\n        productID = items[_upc].productID;\n        productNotes = items[_upc].productNotes;\n        productPrice = items[_upc].productPrice;\n        itemState = items[_upc].itemState;\n        distributorID = items[_upc].distributorID;\n        retailerID = items[_upc].retailerID;\n        consumerID = items[_upc].consumerID;\n\n        return (\n            itemSKU,\n            itemUPC,\n            productID,\n            productNotes,\n            productPrice,\n            itemState,\n            distributorID,\n            retailerID,\n            consumerID\n        );\n    }\n}\n",
  "sourcePath": "/Users/andy/Learn/Assignment/blockchain-project-3/contracts/coffeebase/SupplyChain.sol",
  "compiler": {
    "name": "solc",
    "version": "0.5.16+commit.9c3226ce.Emscripten.clang"
  },
  "schemaVersion": "3.4.9",
  "updatedAt": "2022-12-15T03:35:26.092Z",
  "networkType": "ethereum",
  "devdoc": {
    "methods": {}
  },
  "userdoc": {
    "methods": {
      "isOwner()": {
        "notice": "Check if the calling address is the owner of the contract"
      },
      "owner()": {
        "notice": "Look up the address of the owner"
      },
      "renounceOwnership()": {
        "notice": "Define a function to renounce ownerhip"
      },
      "transferOwnership(address)": {
        "notice": "Define a public function to transfer ownership"
      }
    }
  }
}